S02600004F6E2044656D616E642054726166666963204C696768742073797374656D2E737265631C
S11300000C942A000C941B010C9447000C94470098
S11300100C9447000C9447000C9447000C94470040
S11300200C9447000C9447000C9447000C94470030
S11300300C9447000C9447000C9447000C94470020
S11300400C9447000C9447000C9447000C94470010
S11300500C94470011241FBECFE5D8E0DEBFCDBF0E
S113006020E0A6E6B0E001C01D92AE36B207E1F78B
S113007010E0A0E6B0E0ECEEFBE002C005900D92CB
S1130080A636B107D9F70E94DE020C94F4050C944D
S113009000000E94430180E00E943F0181E090E063
S11300A00E94D3049093690080936800E0916800F3
S11300B0F09169001082109267001092660060E06F
S11300C080E00E94630160E085E00E94630180910A
S11300D06800909169000E94A20261E080E00E94A1
S11300E0630181E08093660060916800709169000B
S11300F00E941F0224C061E081E00E94630160E06D
S113010082E00E94630110926600C1E0C093670020
S113011080916800909169000E94A20261E082E0EF
S11301200E946301C0936600609168007091690049
S113013081E00E941F0261E081E00E9463018091DE
S113014067008823C1F2B2CF80916700813081F5C6
S11301508091660081112CC061E085E00E946301FA
S113016060E083E00E9463010E94C60261E082E0D5
S11301700E946301609168007091690086E00E94AA
S11301801F0261E083E00E94630161E084E00E9459
S1130190630161E081E00E94630160E085E00E9408
S11301A06301E0916800F091690081E08083089523
S11301B060E085E00E94630161E080E00E946301E9
S11301C0609168007091690086E00E941F0261E0FE
S11301D084E00E94630161E085E00E94630160E0C5
S11301E083E00E94630160E082E00E9463010E9458
S11301F0C60261E082E00E94630160916800709130
S1130200690086E00E941F0261E084E00E946301AD
S113021061E081E00E94630160E085E00E94630187
S113022061E083E00E946301E0916800F09169005D
S113023081E0808308951F920F920FB60F921124CC
S11302402F933F934F935F936F937F938F939F93DA
S1130250AF93BF93EF93FF930E94A400FF91EF919C
S1130260BF91AF919F918F917F916F915F914F91CA
S11302703F912F910F900FBE0F901F9018950E94E1
S1130280370480E0089540E061E480E00E94E302E6
S113029040E061E481E00E94E30240E061E482E046
S11302A00E94E30240E062E480E00E94E30240E056
S11302B062E481E00E94E30240E062E482E00E94A2
S11302C0E30280E00895823009F443C028F48823CF
S11302D061F0813021F1A5C0843009F46EC008F4C6
S11302E052C0853009F483C09CC0613059F018F0C5
S11302F0623079F098C041E061E480E00E947E03BE
S113030080E0089540E061E480E00E947E0380E0A4
S1130310089561E480E00E94F20380E00895613072
S113032059F018F0623079F080C041E061E481E076
S11303300E947E0380E0089540E061E481E00E9431
S11303407E0380E0089561E481E00E94F20380E08E
S11303500895613059F018F0623079F068C041E0D6
S113036061E482E00E947E0380E0089540E061E45D
S113037082E00E947E0380E0089561E482E00E94AE
S1130380F20380E00895613059F018F0623079F09A
S113039050C041E062E480E00E947E0380E0089562
S11303A040E062E480E00E947E0380E0089562E41D
S11303B080E00E94F20380E00895613059F018F063
S11303C0623079F038C041E062E481E00E947E034B
S11303D080E0089540E062E481E00E947E0380E0D2
S11303E0089562E481E00E94F20380E008956130A0
S11303F059F018F0623079F020C041E062E482E004
S11304000E947E0380E0089540E062E482E00E945E
S11304107E0380E0089562E482E00E94F20380E0BB
S1130420089581E0089581E0089581E0089581E0D0
S1130430089581E0089581E0089581E008951F936F
S1130440CF93DF93EB01843049F1863009F449C03E
S1130450813009F072C00E94640480E00E94670445
S113046084E00E946A0410E010C08881813019F48D
S11304700E9492040CC008B600FEFDCF61E481E046
S11304800E94F2030E9492041F5F133170F340E054
S113049061E481E00E947E0380E050C00E949A04DF
S11304A080E00E949D0484E00E94A00410E010C03B
S11304B08881813019F40E94CB040CC008B606FE72
S11304C0FDCF62E481E00E94F2030E94CB041F5F2F
S11304D0133170F340E062E481E00E947E0380E027
S11304E02DC00E949A0480E00E949D0484E00E9432
S11304F0A00410E014C08881813019F40E94CB0458
S113050010C008B606FEFDCF61E481E00E94F2034C
S113051062E481E00E94F2030E94CB041F5F133166
S113052050F340E061E481E00E947E0340E062E435
S113053081E00E947E0380E001C081E0DF91CF91E1
S11305401F9108950F931F93CF938C010E9464040D
S113055080E00E94670484E00E946A04C0E00DC049
S1130560F8018081813019F40E94920408C008B611
S113057000FEFDCF0E949204CF5FC33188F30E9436
S1130580970480E0CF911F910F910895CF930E941B
S11305909A0480E00E949D0484E00E94A004C0E0CC
S11305A006C008B606FEFDCF0E94CB04CF5FC33160
S11305B0C0F30E94D00480E0CF9108950E944900C6
S11305C080E090E00895623461F118F4613441F000
S11305D08BC0633409F446C0643409F464C084C035
S11305E0413079F44AB321E030E0B90102C0660F2A
S11305F0771F8A95E2F7CB01809584238ABB80E03C
S11306000895411173C04AB321E030E0B90102C03A
S1130610660F771F8A95E2F7CB01842B8ABB80E0B3
S11306200895413079F447B321E030E0B90102C0C4
S1130630660F771F8A95E2F7CB018095842387BBE9
S113064080E00895411154C047B321E030E0B9017E
S113065002C0660F771F8A95E2F7CB01842B87BB14
S113066080E00895413079F444B321E030E0B901E9
S113067002C0660F771F8A95E2F7CB018095842329
S113068084BB80E00895411135C044B321E030E0DB
S1130690B90102C0660F771F8A95E2F7CB01842B5C
S11306A084BB80E00895413079F441B321E030E027
S11306B0B90102C0660F771F8A95E2F7CB018095D6
S11306C0842381BB80E00895411116C041B321E029
S11306D030E0B90102C0660F771F8A95E2F7CB01BB
S11306E0842B81BB80E0089581E0089581E0089522
S11306F081E0089581E0089581E00895623441F134
S1130700633409F446C0613409F064C041110FC078
S11307104BB321E030E0B90102C0660F771F8A9520
S1130720E2F7CB01809584238BBB80E008954130B0
S113073009F052C04BB321E030E0B90102C0660FAA
S1130740771F8A95E2F7CB01842B8BBB80E0089559
S113075041110FC048B321E030E0B90102C0660F77
S1130760771F8A95E2F7CB018095842388BB80E0CC
S11307700895413099F548B321E030E0B90102C051
S1130780660F771F8A95E2F7CB01842B88BB80E044
S1130790089541110FC045B321E030E0B90102C012
S11307A0660F771F8A95E2F7CB018095842385BB7A
S11307B080E008954130A1F445B321E030E0B9016F
S11307C002C0660F771F8A95E2F7CB01842B85BBA5
S11307D080E0089581E0089581E0089581E008951E
S11307E081E008956234B9F018F4613431F03DC009
S11307F06334F9F0643459F138C04BB321E030E08C
S1130800B90102C0660F771F8A95E2F7CB018427EE
S11308108BBB80E0089548B321E030E0B90102C009
S1130820660F771F8A95E2F7CB01842788BB80E0A7
S1130830089545B321E030E0B90102C0660F771F87
S11308408A95E2F7CB01842785BB80E0089542B303
S113085021E030E0B90102C0660F771F8A95E2F704
S1130860CB01842782BB80E0089581E00895813024
S113087031F070F08230F1F0833099F023C0789435
S113088085B7836085BF8BB780648BBF80E0089594
S1130890789485B7826085BF8BB780648BBF80E016
S11308A00895789485B7816085BF8BB780648BBFCA
S11308B080E00895789485B785BF8BB780648BBF3B
S11308C080E0089581E0089513BE80E0089582BF1A
S11308D080E00895823099F028F4882341F0813033
S11308E051F01EC0833091F08430A1F019C083B759
S11308F0816083BF15C083B7826083BF11C083B793
S1130900816083BF83B7826083BF0AC083B784607A
S113091083BF06C083B7816083BF83B7846083BF0E
S113092080E0089588B7816088BF80E0089513BE91
S113093080E0089515BC80E0089584BD80E00895AA
S1130940823099F028F4882341F0813051F021C09D
S1130950833091F08430A1F01CC085B5816085BDE1
S113096018C085B5826085BD14C085B5816085BD1C
S113097085B5826085BD0DC085B5846085BD09C01F
S113098085B5816085BD85B5826085BD85B584608A
S113099085BD80E0089588B7806488BF80E00895AD
S11309A015BC80E008950F931F93CF93DF9382309B
S11309B0910510F482E090E0E0916C00F0916D00FC
S11309C020E030E0A0E0B0E0309719F1408151819F
S11309D00281138148175907C8F08417950769F4F1
S11309E0109731F012960C93129713961C9327C00C
S11309F000936C0010936D0022C02115310519F08D
S1130A004217530718F49A01BD01EF01DF01F80101
S1130A10DBCF21153105F9F0281B390B24303105C2
S1130A2080F48A819B816115710521F0FB01938318
S1130A30828304C090936D0080936C00FE01329613
S1130A4044C0FE01E20FF31F8193919322503109B8
S1130A50398328833AC020916A0030916B00232B9C
S1130A6041F4209162003091630030936B00209335
S1130A706A0020916000309161002115310541F434
S1130A802DB73EB74091640050916500241B350B8F
S1130A90E0916A00F0916B00E217F307A0F42E1BBB
S1130AA03F0B2817390778F0AC014E5F5F4F2417CE
S1130AB0350748F04E0F5F1F50936B0040936A0058
S1130AC08193919302C0E0E0F0E0CF01DF91CF91F8
S1130AD01F910F910895CF93DF93009709F481C07C
S1130AE0FC01329713821282A0916C00B0916D00C8
S1130AF0109781F420813181820F931F20916A0025
S1130B0030916B002817390751F5F0936B00E0938F
S1130B106A0067C0ED0120E030E0CE17DF0740F443
S1130B204A815B819E0141155105F1F0EA01F5CF3F
S1130B30D383C28340815181840F951FC817D9077D
S1130B4059F488819981840F951F0296918380833B
S1130B508A819B81938382832115310529F4F09343
S1130B606D00E0936C003DC0E901FB83EA83499189
S1130B705991C40FD51FEC17FD0761F48081918151
S1130B80840F951F0296E90199838883828193815A
S1130B909B838A83E0E0F0E012968D919C911397F9
S1130BA0009719F0FD01DC01F7CF8D919C9111970D
S1130BB09D012E5F3F4F820F931F20916A00309159
S1130BC06B002817390769F4309729F410926D00E7
S1130BD010926C0002C013821282B0936B00A09337
S10F0BE06A00DF91CF910895F894FFCFD4
S1090BEC00006E00200071
S9030000FC
